{
  "_format": "hh-sol-artifact-1",
  "contractName": "MintNFT",
  "sourceName": "contracts/MintNFT.sol",
  "abi": [
    {
      "inputs": [
        {
          "internalType": "string",
          "name": "_name",
          "type": "string"
        },
        {
          "internalType": "string",
          "name": "_symbol",
          "type": "string"
        }
      ],
      "stateMutability": "nonpayable",
      "type": "constructor"
    },
    {
      "inputs": [],
      "name": "ERC721EnumerableForbiddenBatchMint",
      "type": "error"
    },
    {
      "inputs": [
        {
          "internalType": "address",
          "name": "sender",
          "type": "address"
        },
        {
          "internalType": "uint256",
          "name": "tokenId",
          "type": "uint256"
        },
        {
          "internalType": "address",
          "name": "owner",
          "type": "address"
        }
      ],
      "name": "ERC721IncorrectOwner",
      "type": "error"
    },
    {
      "inputs": [
        {
          "internalType": "address",
          "name": "operator",
          "type": "address"
        },
        {
          "internalType": "uint256",
          "name": "tokenId",
          "type": "uint256"
        }
      ],
      "name": "ERC721InsufficientApproval",
      "type": "error"
    },
    {
      "inputs": [
        {
          "internalType": "address",
          "name": "approver",
          "type": "address"
        }
      ],
      "name": "ERC721InvalidApprover",
      "type": "error"
    },
    {
      "inputs": [
        {
          "internalType": "address",
          "name": "operator",
          "type": "address"
        }
      ],
      "name": "ERC721InvalidOperator",
      "type": "error"
    },
    {
      "inputs": [
        {
          "internalType": "address",
          "name": "owner",
          "type": "address"
        }
      ],
      "name": "ERC721InvalidOwner",
      "type": "error"
    },
    {
      "inputs": [
        {
          "internalType": "address",
          "name": "receiver",
          "type": "address"
        }
      ],
      "name": "ERC721InvalidReceiver",
      "type": "error"
    },
    {
      "inputs": [
        {
          "internalType": "address",
          "name": "sender",
          "type": "address"
        }
      ],
      "name": "ERC721InvalidSender",
      "type": "error"
    },
    {
      "inputs": [
        {
          "internalType": "uint256",
          "name": "tokenId",
          "type": "uint256"
        }
      ],
      "name": "ERC721NonexistentToken",
      "type": "error"
    },
    {
      "inputs": [
        {
          "internalType": "address",
          "name": "owner",
          "type": "address"
        },
        {
          "internalType": "uint256",
          "name": "index",
          "type": "uint256"
        }
      ],
      "name": "ERC721OutOfBoundsIndex",
      "type": "error"
    },
    {
      "inputs": [],
      "name": "ReentrancyGuardReentrantCall",
      "type": "error"
    },
    {
      "anonymous": false,
      "inputs": [
        {
          "indexed": true,
          "internalType": "address",
          "name": "owner",
          "type": "address"
        },
        {
          "indexed": true,
          "internalType": "address",
          "name": "approved",
          "type": "address"
        },
        {
          "indexed": true,
          "internalType": "uint256",
          "name": "tokenId",
          "type": "uint256"
        }
      ],
      "name": "Approval",
      "type": "event"
    },
    {
      "anonymous": false,
      "inputs": [
        {
          "indexed": true,
          "internalType": "address",
          "name": "owner",
          "type": "address"
        },
        {
          "indexed": true,
          "internalType": "address",
          "name": "operator",
          "type": "address"
        },
        {
          "indexed": false,
          "internalType": "bool",
          "name": "approved",
          "type": "bool"
        }
      ],
      "name": "ApprovalForAll",
      "type": "event"
    },
    {
      "anonymous": false,
      "inputs": [
        {
          "indexed": false,
          "internalType": "uint256",
          "name": "listingId",
          "type": "uint256"
        },
        {
          "indexed": true,
          "internalType": "address",
          "name": "seller",
          "type": "address"
        },
        {
          "indexed": true,
          "internalType": "address",
          "name": "bidder",
          "type": "address"
        },
        {
          "indexed": false,
          "internalType": "uint256",
          "name": "bid",
          "type": "uint256"
        }
      ],
      "name": "AuctionCompleted",
      "type": "event"
    },
    {
      "anonymous": false,
      "inputs": [
        {
          "indexed": false,
          "internalType": "uint256",
          "name": "listingId",
          "type": "uint256"
        },
        {
          "indexed": true,
          "internalType": "address",
          "name": "seller",
          "type": "address"
        },
        {
          "indexed": false,
          "internalType": "uint256",
          "name": "price",
          "type": "uint256"
        },
        {
          "indexed": false,
          "internalType": "uint256",
          "name": "tokenId",
          "type": "uint256"
        },
        {
          "indexed": false,
          "internalType": "uint256",
          "name": "startAt",
          "type": "uint256"
        },
        {
          "indexed": false,
          "internalType": "uint256",
          "name": "endAt",
          "type": "uint256"
        }
      ],
      "name": "AuctionCreated",
      "type": "event"
    },
    {
      "anonymous": false,
      "inputs": [
        {
          "indexed": false,
          "internalType": "uint256",
          "name": "listingId",
          "type": "uint256"
        },
        {
          "indexed": true,
          "internalType": "address",
          "name": "bidder",
          "type": "address"
        },
        {
          "indexed": false,
          "internalType": "uint256",
          "name": "bid",
          "type": "uint256"
        }
      ],
      "name": "BidCreated",
      "type": "event"
    },
    {
      "anonymous": false,
      "inputs": [
        {
          "indexed": true,
          "internalType": "address",
          "name": "minter",
          "type": "address"
        },
        {
          "indexed": false,
          "internalType": "uint256",
          "name": "nftID",
          "type": "uint256"
        },
        {
          "indexed": false,
          "internalType": "string",
          "name": "uri",
          "type": "string"
        }
      ],
      "name": "Minted",
      "type": "event"
    },
    {
      "anonymous": false,
      "inputs": [
        {
          "indexed": true,
          "internalType": "address",
          "name": "from",
          "type": "address"
        },
        {
          "indexed": true,
          "internalType": "address",
          "name": "to",
          "type": "address"
        },
        {
          "indexed": true,
          "internalType": "uint256",
          "name": "tokenId",
          "type": "uint256"
        }
      ],
      "name": "Transfer",
      "type": "event"
    },
    {
      "anonymous": false,
      "inputs": [
        {
          "indexed": false,
          "internalType": "uint256",
          "name": "listingId",
          "type": "uint256"
        },
        {
          "indexed": true,
          "internalType": "address",
          "name": "bidder",
          "type": "address"
        },
        {
          "indexed": false,
          "internalType": "uint256",
          "name": "bid",
          "type": "uint256"
        }
      ],
      "name": "WithdrawBid",
      "type": "event"
    },
    {
      "inputs": [],
      "name": "STATUS_DONE",
      "outputs": [
        {
          "internalType": "uint8",
          "name": "",
          "type": "uint8"
        }
      ],
      "stateMutability": "view",
      "type": "function"
    },
    {
      "inputs": [],
      "name": "STATUS_OPEN",
      "outputs": [
        {
          "internalType": "uint8",
          "name": "",
          "type": "uint8"
        }
      ],
      "stateMutability": "view",
      "type": "function"
    },
    {
      "inputs": [
        {
          "internalType": "address",
          "name": "to",
          "type": "address"
        },
        {
          "internalType": "uint256",
          "name": "tokenId",
          "type": "uint256"
        }
      ],
      "name": "approve",
      "outputs": [],
      "stateMutability": "nonpayable",
      "type": "function"
    },
    {
      "inputs": [
        {
          "internalType": "address",
          "name": "owner",
          "type": "address"
        }
      ],
      "name": "balanceOf",
      "outputs": [
        {
          "internalType": "uint256",
          "name": "",
          "type": "uint256"
        }
      ],
      "stateMutability": "view",
      "type": "function"
    },
    {
      "inputs": [
        {
          "internalType": "uint256",
          "name": "listingId",
          "type": "uint256"
        }
      ],
      "name": "bid",
      "outputs": [],
      "stateMutability": "payable",
      "type": "function"
    },
    {
      "inputs": [
        {
          "internalType": "uint256",
          "name": "",
          "type": "uint256"
        },
        {
          "internalType": "address",
          "name": "",
          "type": "address"
        }
      ],
      "name": "bids",
      "outputs": [
        {
          "internalType": "uint256",
          "name": "",
          "type": "uint256"
        }
      ],
      "stateMutability": "view",
      "type": "function"
    },
    {
      "inputs": [
        {
          "internalType": "uint256",
          "name": "listingId",
          "type": "uint256"
        }
      ],
      "name": "completeAuction",
      "outputs": [],
      "stateMutability": "payable",
      "type": "function"
    },
    {
      "inputs": [
        {
          "internalType": "uint256",
          "name": "price",
          "type": "uint256"
        },
        {
          "internalType": "uint256",
          "name": "durationInSeconds",
          "type": "uint256"
        },
        {
          "internalType": "string",
          "name": "uri",
          "type": "string"
        }
      ],
      "name": "createAuctionListing",
      "outputs": [
        {
          "internalType": "uint256",
          "name": "",
          "type": "uint256"
        }
      ],
      "stateMutability": "nonpayable",
      "type": "function"
    },
    {
      "inputs": [
        {
          "internalType": "uint256",
          "name": "tokenId",
          "type": "uint256"
        }
      ],
      "name": "getApproved",
      "outputs": [
        {
          "internalType": "address",
          "name": "",
          "type": "address"
        }
      ],
      "stateMutability": "view",
      "type": "function"
    },
    {
      "inputs": [
        {
          "internalType": "uint256",
          "name": "listingId",
          "type": "uint256"
        },
        {
          "internalType": "address",
          "name": "user",
          "type": "address"
        }
      ],
      "name": "getBidAmountByUser",
      "outputs": [
        {
          "internalType": "uint256",
          "name": "",
          "type": "uint256"
        }
      ],
      "stateMutability": "view",
      "type": "function"
    },
    {
      "inputs": [
        {
          "internalType": "uint256",
          "name": "listingId",
          "type": "uint256"
        }
      ],
      "name": "getCurrentPrice",
      "outputs": [
        {
          "internalType": "uint256",
          "name": "",
          "type": "uint256"
        }
      ],
      "stateMutability": "view",
      "type": "function"
    },
    {
      "inputs": [
        {
          "internalType": "uint256",
          "name": "x",
          "type": "uint256"
        }
      ],
      "name": "getDetailsListing",
      "outputs": [
        {
          "components": [
            {
              "internalType": "address",
              "name": "seller",
              "type": "address"
            },
            {
              "internalType": "uint256",
              "name": "tokenId",
              "type": "uint256"
            },
            {
              "internalType": "uint256",
              "name": "price",
              "type": "uint256"
            },
            {
              "internalType": "uint256",
              "name": "netPrice",
              "type": "uint256"
            },
            {
              "internalType": "uint256",
              "name": "startAt",
              "type": "uint256"
            },
            {
              "internalType": "uint256",
              "name": "endAt",
              "type": "uint256"
            },
            {
              "internalType": "uint8",
              "name": "status",
              "type": "uint8"
            }
          ],
          "internalType": "struct MintNFT.Listing",
          "name": "_Listing",
          "type": "tuple"
        }
      ],
      "stateMutability": "view",
      "type": "function"
    },
    {
      "inputs": [
        {
          "internalType": "uint256",
          "name": "listingId",
          "type": "uint256"
        }
      ],
      "name": "getHighestBidder",
      "outputs": [
        {
          "internalType": "address",
          "name": "",
          "type": "address"
        }
      ],
      "stateMutability": "view",
      "type": "function"
    },
    {
      "inputs": [],
      "name": "getTotalAuction",
      "outputs": [
        {
          "internalType": "uint256",
          "name": "_numb",
          "type": "uint256"
        }
      ],
      "stateMutability": "view",
      "type": "function"
    },
    {
      "inputs": [],
      "name": "getTotalAuctionInProgress",
      "outputs": [
        {
          "internalType": "uint256",
          "name": "_numb",
          "type": "uint256"
        }
      ],
      "stateMutability": "view",
      "type": "function"
    },
    {
      "inputs": [
        {
          "internalType": "uint256",
          "name": "",
          "type": "uint256"
        }
      ],
      "name": "highestBidder",
      "outputs": [
        {
          "internalType": "address",
          "name": "",
          "type": "address"
        }
      ],
      "stateMutability": "view",
      "type": "function"
    },
    {
      "inputs": [
        {
          "internalType": "address",
          "name": "owner",
          "type": "address"
        },
        {
          "internalType": "address",
          "name": "operator",
          "type": "address"
        }
      ],
      "name": "isApprovedForAll",
      "outputs": [
        {
          "internalType": "bool",
          "name": "",
          "type": "bool"
        }
      ],
      "stateMutability": "view",
      "type": "function"
    },
    {
      "inputs": [
        {
          "internalType": "uint256",
          "name": "id",
          "type": "uint256"
        }
      ],
      "name": "isAuctionExpired",
      "outputs": [
        {
          "internalType": "bool",
          "name": "",
          "type": "bool"
        }
      ],
      "stateMutability": "view",
      "type": "function"
    },
    {
      "inputs": [
        {
          "internalType": "uint256",
          "name": "id",
          "type": "uint256"
        }
      ],
      "name": "isAuctionOpen",
      "outputs": [
        {
          "internalType": "bool",
          "name": "",
          "type": "bool"
        }
      ],
      "stateMutability": "view",
      "type": "function"
    },
    {
      "inputs": [],
      "name": "listingCounter",
      "outputs": [
        {
          "internalType": "uint256",
          "name": "",
          "type": "uint256"
        }
      ],
      "stateMutability": "view",
      "type": "function"
    },
    {
      "inputs": [],
      "name": "listingTotal",
      "outputs": [
        {
          "internalType": "uint256",
          "name": "",
          "type": "uint256"
        }
      ],
      "stateMutability": "view",
      "type": "function"
    },
    {
      "inputs": [
        {
          "internalType": "uint256",
          "name": "",
          "type": "uint256"
        }
      ],
      "name": "listings",
      "outputs": [
        {
          "internalType": "address",
          "name": "seller",
          "type": "address"
        },
        {
          "internalType": "uint256",
          "name": "tokenId",
          "type": "uint256"
        },
        {
          "internalType": "uint256",
          "name": "price",
          "type": "uint256"
        },
        {
          "internalType": "uint256",
          "name": "netPrice",
          "type": "uint256"
        },
        {
          "internalType": "uint256",
          "name": "startAt",
          "type": "uint256"
        },
        {
          "internalType": "uint256",
          "name": "endAt",
          "type": "uint256"
        },
        {
          "internalType": "uint8",
          "name": "status",
          "type": "uint8"
        }
      ],
      "stateMutability": "view",
      "type": "function"
    },
    {
      "inputs": [],
      "name": "minAuctionIncrement",
      "outputs": [
        {
          "internalType": "uint256",
          "name": "",
          "type": "uint256"
        }
      ],
      "stateMutability": "view",
      "type": "function"
    },
    {
      "inputs": [
        {
          "internalType": "address",
          "name": "minterAddress",
          "type": "address"
        },
        {
          "internalType": "string",
          "name": "uri",
          "type": "string"
        }
      ],
      "name": "mint",
      "outputs": [
        {
          "internalType": "uint256",
          "name": "",
          "type": "uint256"
        }
      ],
      "stateMutability": "nonpayable",
      "type": "function"
    },
    {
      "inputs": [],
      "name": "name",
      "outputs": [
        {
          "internalType": "string",
          "name": "",
          "type": "string"
        }
      ],
      "stateMutability": "view",
      "type": "function"
    },
    {
      "inputs": [
        {
          "internalType": "uint256",
          "name": "tokenId",
          "type": "uint256"
        }
      ],
      "name": "ownerOf",
      "outputs": [
        {
          "internalType": "address",
          "name": "",
          "type": "address"
        }
      ],
      "stateMutability": "view",
      "type": "function"
    },
    {
      "inputs": [
        {
          "internalType": "address",
          "name": "from",
          "type": "address"
        },
        {
          "internalType": "address",
          "name": "to",
          "type": "address"
        },
        {
          "internalType": "uint256",
          "name": "tokenId",
          "type": "uint256"
        }
      ],
      "name": "safeTransferFrom",
      "outputs": [],
      "stateMutability": "nonpayable",
      "type": "function"
    },
    {
      "inputs": [
        {
          "internalType": "address",
          "name": "from",
          "type": "address"
        },
        {
          "internalType": "address",
          "name": "to",
          "type": "address"
        },
        {
          "internalType": "uint256",
          "name": "tokenId",
          "type": "uint256"
        },
        {
          "internalType": "bytes",
          "name": "data",
          "type": "bytes"
        }
      ],
      "name": "safeTransferFrom",
      "outputs": [],
      "stateMutability": "nonpayable",
      "type": "function"
    },
    {
      "inputs": [
        {
          "internalType": "uint256",
          "name": "tokenId",
          "type": "uint256"
        },
        {
          "internalType": "uint256",
          "name": "price",
          "type": "uint256"
        },
        {
          "internalType": "uint256",
          "name": "durationInSeconds",
          "type": "uint256"
        }
      ],
      "name": "sellExistingNFT",
      "outputs": [
        {
          "internalType": "uint256",
          "name": "",
          "type": "uint256"
        }
      ],
      "stateMutability": "nonpayable",
      "type": "function"
    },
    {
      "inputs": [
        {
          "internalType": "address",
          "name": "operator",
          "type": "address"
        },
        {
          "internalType": "bool",
          "name": "approved",
          "type": "bool"
        }
      ],
      "name": "setApprovalForAll",
      "outputs": [],
      "stateMutability": "nonpayable",
      "type": "function"
    },
    {
      "inputs": [
        {
          "internalType": "bytes4",
          "name": "interfaceId",
          "type": "bytes4"
        }
      ],
      "name": "supportsInterface",
      "outputs": [
        {
          "internalType": "bool",
          "name": "",
          "type": "bool"
        }
      ],
      "stateMutability": "view",
      "type": "function"
    },
    {
      "inputs": [],
      "name": "symbol",
      "outputs": [
        {
          "internalType": "string",
          "name": "",
          "type": "string"
        }
      ],
      "stateMutability": "view",
      "type": "function"
    },
    {
      "inputs": [
        {
          "internalType": "uint256",
          "name": "index",
          "type": "uint256"
        }
      ],
      "name": "tokenByIndex",
      "outputs": [
        {
          "internalType": "uint256",
          "name": "",
          "type": "uint256"
        }
      ],
      "stateMutability": "view",
      "type": "function"
    },
    {
      "inputs": [],
      "name": "tokenCounter",
      "outputs": [
        {
          "internalType": "uint256",
          "name": "",
          "type": "uint256"
        }
      ],
      "stateMutability": "view",
      "type": "function"
    },
    {
      "inputs": [
        {
          "internalType": "address",
          "name": "owner",
          "type": "address"
        },
        {
          "internalType": "uint256",
          "name": "index",
          "type": "uint256"
        }
      ],
      "name": "tokenOfOwnerByIndex",
      "outputs": [
        {
          "internalType": "uint256",
          "name": "",
          "type": "uint256"
        }
      ],
      "stateMutability": "view",
      "type": "function"
    },
    {
      "inputs": [
        {
          "internalType": "uint256",
          "name": "tokenId",
          "type": "uint256"
        }
      ],
      "name": "tokenURI",
      "outputs": [
        {
          "internalType": "string",
          "name": "",
          "type": "string"
        }
      ],
      "stateMutability": "view",
      "type": "function"
    },
    {
      "inputs": [],
      "name": "totalSupply",
      "outputs": [
        {
          "internalType": "uint256",
          "name": "",
          "type": "uint256"
        }
      ],
      "stateMutability": "view",
      "type": "function"
    },
    {
      "inputs": [
        {
          "internalType": "address",
          "name": "from",
          "type": "address"
        },
        {
          "internalType": "address",
          "name": "to",
          "type": "address"
        },
        {
          "internalType": "uint256",
          "name": "tokenId",
          "type": "uint256"
        }
      ],
      "name": "transferFrom",
      "outputs": [],
      "stateMutability": "nonpayable",
      "type": "function"
    },
    {
      "inputs": [
        {
          "internalType": "uint256",
          "name": "listingId",
          "type": "uint256"
        }
      ],
      "name": "withdrawBid",
      "outputs": [],
      "stateMutability": "payable",
      "type": "function"
    }
  ],
  "bytecode": "0x6080604052600a600f553480156200001657600080fd5b50604051620052803803806200528083398181016040528101906200003c91906200021f565b818160016000819055508160019081620000579190620004ef565b508060029081620000699190620004ef565b5050506000600b819055506000600c819055506000600d819055505050620005d6565b6000604051905090565b600080fd5b600080fd5b600080fd5b600080fd5b6000601f19601f8301169050919050565b7f4e487b7100000000000000000000000000000000000000000000000000000000600052604160045260246000fd5b620000f582620000aa565b810181811067ffffffffffffffff82111715620001175762000116620000bb565b5b80604052505050565b60006200012c6200008c565b90506200013a8282620000ea565b919050565b600067ffffffffffffffff8211156200015d576200015c620000bb565b5b6200016882620000aa565b9050602081019050919050565b60005b838110156200019557808201518184015260208101905062000178565b60008484015250505050565b6000620001b8620001b2846200013f565b62000120565b905082815260208101848484011115620001d757620001d6620000a5565b5b620001e484828562000175565b509392505050565b600082601f830112620002045762000203620000a0565b5b815162000216848260208601620001a1565b91505092915050565b6000806040838503121562000239576200023862000096565b5b600083015167ffffffffffffffff8111156200025a57620002596200009b565b5b6200026885828601620001ec565b925050602083015167ffffffffffffffff8111156200028c576200028b6200009b565b5b6200029a85828601620001ec565b9150509250929050565b600081519050919050565b7f4e487b7100000000000000000000000000000000000000000000000000000000600052602260045260246000fd5b60006002820490506001821680620002f757607f821691505b6020821081036200030d576200030c620002af565b5b50919050565b60008190508160005260206000209050919050565b60006020601f8301049050919050565b600082821b905092915050565b600060088302620003777fffffffffffffffffffffffffffffffffffffffffffffffffffffffffffffffff8262000338565b62000383868362000338565b95508019841693508086168417925050509392505050565b6000819050919050565b6000819050919050565b6000620003d0620003ca620003c4846200039b565b620003a5565b6200039b565b9050919050565b6000819050919050565b620003ec83620003af565b62000404620003fb82620003d7565b84845462000345565b825550505050565b600090565b6200041b6200040c565b62000428818484620003e1565b505050565b5b8181101562000450576200044460008262000411565b6001810190506200042e565b5050565b601f8211156200049f57620004698162000313565b620004748462000328565b8101602085101562000484578190505b6200049c620004938562000328565b8301826200042d565b50505b505050565b600082821c905092915050565b6000620004c460001984600802620004a4565b1980831691505092915050565b6000620004df8383620004b1565b9150826002028217905092915050565b620004fa82620002a4565b67ffffffffffffffff811115620005165762000515620000bb565b5b620005228254620002de565b6200052f82828562000454565b600060209050601f83116001811462000567576000841562000552578287015190505b6200055e8582620004d1565b865550620005ce565b601f198416620005778662000313565b60005b82811015620005a1578489015182556001820191506020850194506020810190506200057a565b86831015620005c15784890151620005bd601f891682620004b1565b8355505b6001600288020188555050505b505050505050565b614c9a80620005e66000396000f3fe6080604052600436106102305760003560e01c8063708d4d351161012e578063c540ba6f116100ab578063d082e3811161006f578063d082e381146108d4578063d0def521146108ff578063de74e57b1461093c578063e985e9c51461097f578063ebdbec6a146109bc57610230565b8063c540ba6f146107b5578063c55d0f56146107f2578063c750cb791461082f578063c87b56dd1461086c578063cf537ae0146108a957610230565b80638da01760116100f25780638da01760146106be57806395d89b41146106fb5780639d96675314610726578063a22cb46514610763578063b88d4fde1461078c57610230565b8063708d4d35146105d557806370a0823114610600578063740db2801461063d5780638173a25f146106685780638c8b62531461069357610230565b806323b872dd116101bc578063451df52e11610180578063451df52e146104d7578063454a2ab3146105145780634f6ccce7146105305780636352211e1461056d5780636c2c9c7d146105aa57610230565b806323b872dd146103e057806324f8515b146104095780632f745c59146104345780633f1ffcec1461047157806342842e0e146104ae57610230565b80630ad48628116102035780630ad48628146103035780630eaaf4c8146103405780631389b1171461035c57806318160ddd1461039957806321b62886146103c457610230565b806301ffc9a71461023557806306fdde0314610272578063081812fc1461029d578063095ea7b3146102da575b600080fd5b34801561024157600080fd5b5061025c60048036038101906102579190613673565b6109f9565b60405161026991906136bb565b60405180910390f35b34801561027e57600080fd5b50610287610a73565b6040516102949190613766565b60405180910390f35b3480156102a957600080fd5b506102c460048036038101906102bf91906137be565b610b05565b6040516102d1919061382c565b60405180910390f35b3480156102e657600080fd5b5061030160048036038101906102fc9190613873565b610b21565b005b34801561030f57600080fd5b5061032a600480360381019061032591906137be565b610b37565b60405161033791906136bb565b60405180910390f35b61035a600480360381019061035591906137be565b610b6d565b005b34801561036857600080fd5b50610383600480360381019061037e91906137be565b610d6f565b60405161039091906136bb565b60405180910390f35b3480156103a557600080fd5b506103ae610d92565b6040516103bb91906138c2565b60405180910390f35b6103de60048036038101906103d991906137be565b610d9f565b005b3480156103ec57600080fd5b50610407600480360381019061040291906138dd565b61117a565b005b34801561041557600080fd5b5061041e61127c565b60405161042b919061394c565b60405180910390f35b34801561044057600080fd5b5061045b60048036038101906104569190613873565b611281565b60405161046891906138c2565b60405180910390f35b34801561047d57600080fd5b5061049860048036038101906104939190613967565b61132a565b6040516104a591906138c2565b60405180910390f35b3480156104ba57600080fd5b506104d560048036038101906104d091906138dd565b61134f565b005b3480156104e357600080fd5b506104fe60048036038101906104f991906137be565b61136f565b60405161050b919061382c565b60405180910390f35b61052e600480360381019061052991906137be565b6113a2565b005b34801561053c57600080fd5b50610557600480360381019061055291906137be565b611687565b60405161056491906138c2565b60405180910390f35b34801561057957600080fd5b50610594600480360381019061058f91906137be565b6116fd565b6040516105a1919061382c565b60405180910390f35b3480156105b657600080fd5b506105bf61170f565b6040516105cc91906138c2565b60405180910390f35b3480156105e157600080fd5b506105ea611715565b6040516105f791906138c2565b60405180910390f35b34801561060c57600080fd5b50610627600480360381019061062291906139a7565b61171b565b60405161063491906138c2565b60405180910390f35b34801561064957600080fd5b506106526117d5565b60405161065f919061394c565b60405180910390f35b34801561067457600080fd5b5061067d6117da565b60405161068a91906138c2565b60405180910390f35b34801561069f57600080fd5b506106a86117e0565b6040516106b591906138c2565b60405180910390f35b3480156106ca57600080fd5b506106e560048036038101906106e091906139d4565b6117ea565b6040516106f291906138c2565b60405180910390f35b34801561070757600080fd5b50610710611a61565b60405161071d9190613766565b60405180910390f35b34801561073257600080fd5b5061074d60048036038101906107489190613967565b611af3565b60405161075a91906138c2565b60405180910390f35b34801561076f57600080fd5b5061078a60048036038101906107859190613a53565b611b4e565b005b34801561079857600080fd5b506107b360048036038101906107ae9190613bc8565b611b64565b005b3480156107c157600080fd5b506107dc60048036038101906107d79190613cec565b611b81565b6040516107e991906138c2565b60405180910390f35b3480156107fe57600080fd5b50610819600480360381019061081491906137be565b611d47565b60405161082691906138c2565b60405180910390f35b34801561083b57600080fd5b50610856600480360381019061085191906137be565b611dd9565b604051610863919061382c565b60405180910390f35b34801561087857600080fd5b50610893600480360381019061088e91906137be565b611e16565b6040516108a09190613766565b60405180910390f35b3480156108b557600080fd5b506108be611ebb565b6040516108cb91906138c2565b60405180910390f35b3480156108e057600080fd5b506108e9611ec5565b6040516108f691906138c2565b60405180910390f35b34801561090b57600080fd5b5061092660048036038101906109219190613d5b565b611ecb565b60405161093391906138c2565b60405180910390f35b34801561094857600080fd5b50610963600480360381019061095e91906137be565b61201b565b6040516109769796959493929190613db7565b60405180910390f35b34801561098b57600080fd5b506109a660048036038101906109a19190613e26565b61208a565b6040516109b391906136bb565b60405180910390f35b3480156109c857600080fd5b506109e360048036038101906109de91906137be565b61211e565b6040516109f09190613f21565b60405180910390f35b60007f780e9d63000000000000000000000000000000000000000000000000000000007bffffffffffffffffffffffffffffffffffffffffffffffffffffffff1916827bffffffffffffffffffffffffffffffffffffffffffffffffffffffff19161480610a6c5750610a6b826121f0565b5b9050919050565b606060018054610a8290613f6b565b80601f0160208091040260200160405190810160405280929190818152602001828054610aae90613f6b565b8015610afb5780601f10610ad057610100808354040283529160200191610afb565b820191906000526020600020905b815481529060010190602001808311610ade57829003601f168201915b5050505050905090565b6000610b10826122d2565b50610b1a8261235a565b9050919050565b610b338282610b2e612397565b61239f565b5050565b6000600160ff166010600084815260200190815260200160002060060160009054906101000a900460ff1660ff16149050919050565b610b756123b1565b610b7e81610d6f565b610bbd576040517f08c379a0000000000000000000000000000000000000000000000000000000008152600401610bb490613fe8565b60405180910390fd5b3373ffffffffffffffffffffffffffffffffffffffff166012600083815260200190815260200160002060009054906101000a900473ffffffffffffffffffffffffffffffffffffffff1673ffffffffffffffffffffffffffffffffffffffff1603610c5e576040517f08c379a0000000000000000000000000000000000000000000000000000000008152600401610c559061407a565b60405180910390fd5b60006011600083815260200190815260200160002060003373ffffffffffffffffffffffffffffffffffffffff1673ffffffffffffffffffffffffffffffffffffffff16815260200190815260200160002054905060006011600084815260200190815260200160002060003373ffffffffffffffffffffffffffffffffffffffff1673ffffffffffffffffffffffffffffffffffffffff16815260200190815260200160002081905550610d1333826123f7565b3373ffffffffffffffffffffffffffffffffffffffff167f5eec25485ddf1aad4b5c89eda65e6053949901bfb1fe6f4c553e9c208b5bd5f88383604051610d5b92919061409a565b60405180910390a250610d6c612521565b50565b600042601060008481526020019081526020016000206005015411159050919050565b6000600980549050905090565b610da76123b1565b610db081610d6f565b610def576040517f08c379a0000000000000000000000000000000000000000000000000000000008152600401610de69061410f565b60405180910390fd5b600060106000838152602001908152602001600020905060006012600084815260200190815260200160002060009054906101000a900473ffffffffffffffffffffffffffffffffffffffff1690508160000160009054906101000a900473ffffffffffffffffffffffffffffffffffffffff1673ffffffffffffffffffffffffffffffffffffffff163373ffffffffffffffffffffffffffffffffffffffff161480610ec757508073ffffffffffffffffffffffffffffffffffffffff163373ffffffffffffffffffffffffffffffffffffffff16145b610f06576040517f08c379a0000000000000000000000000000000000000000000000000000000008152600401610efd906141a1565b60405180910390fd5b600073ffffffffffffffffffffffffffffffffffffffff168173ffffffffffffffffffffffffffffffffffffffff161461102857610f493082846001015461252b565b60006011600085815260200190815260200160002060008373ffffffffffffffffffffffffffffffffffffffff1673ffffffffffffffffffffffffffffffffffffffff16815260200190815260200160002054905060006011600086815260200190815260200160002060008473ffffffffffffffffffffffffffffffffffffffff1673ffffffffffffffffffffffffffffffffffffffff168152602001908152602001600020819055506110228360000160009054906101000a900473ffffffffffffffffffffffffffffffffffffffff16826123f7565b5061105c565b61105b308360000160009054906101000a900473ffffffffffffffffffffffffffffffffffffffff16846001015461252b565b5b60028260060160006101000a81548160ff021916908360ff160217905550600d600081548092919061108d906141f0565b91905055508073ffffffffffffffffffffffffffffffffffffffff168260000160009054906101000a900473ffffffffffffffffffffffffffffffffffffffff1673ffffffffffffffffffffffffffffffffffffffff167f7a59a6c36c8b7dc5080444722a7a194bf83837c893f984bcea8692e91551fc47856011600088815260200190815260200160002060008673ffffffffffffffffffffffffffffffffffffffff1673ffffffffffffffffffffffffffffffffffffffff1681526020019081526020016000205460405161116592919061409a565b60405180910390a35050611177612521565b50565b600073ffffffffffffffffffffffffffffffffffffffff168273ffffffffffffffffffffffffffffffffffffffff16036111ec5760006040517f64a0ae920000000000000000000000000000000000000000000000000000000081526004016111e3919061382c565b60405180910390fd5b600061120083836111fb612397565b612698565b90508373ffffffffffffffffffffffffffffffffffffffff168173ffffffffffffffffffffffffffffffffffffffff1614611276578382826040517f64283d7b00000000000000000000000000000000000000000000000000000000815260040161126d93929190614219565b60405180910390fd5b50505050565b600181565b600061128c8361171b565b82106112d15782826040517fa57d13dc0000000000000000000000000000000000000000000000000000000081526004016112c8929190614250565b60405180910390fd5b600760008473ffffffffffffffffffffffffffffffffffffffff1673ffffffffffffffffffffffffffffffffffffffff168152602001908152602001600020600083815260200190815260200160002054905092915050565b6011602052816000526040600020602052806000526040600020600091509150505481565b61136a83838360405180602001604052806000815250611b64565b505050565b60126020528060005260406000206000915054906101000a900473ffffffffffffffffffffffffffffffffffffffff1681565b6113aa6123b1565b6113b381610b37565b6113f2576040517f08c379a00000000000000000000000000000000000000000000000000000000081526004016113e9906142c5565b60405180910390fd5b60006010600083815260200190815260200160002090508060000160009054906101000a900473ffffffffffffffffffffffffffffffffffffffff1673ffffffffffffffffffffffffffffffffffffffff163373ffffffffffffffffffffffffffffffffffffffff160361149b576040517f08c379a000000000000000000000000000000000000000000000000000000000815260040161149290614331565b60405180910390fd5b6000346011600085815260200190815260200160002060003373ffffffffffffffffffffffffffffffffffffffff1673ffffffffffffffffffffffffffffffffffffffff168152602001908152602001600020546114f99190614351565b90508160020154811015611542576040517f08c379a0000000000000000000000000000000000000000000000000000000008152600401611539906143f7565b60405180910390fd5b346011600085815260200190815260200160002060003373ffffffffffffffffffffffffffffffffffffffff1673ffffffffffffffffffffffffffffffffffffffff16815260200190815260200160002060008282546115a29190614351565b92505081905550336012600085815260200190815260200160002060006101000a81548173ffffffffffffffffffffffffffffffffffffffff021916908373ffffffffffffffffffffffffffffffffffffffff1602179055506000600f54836002015461160f9190614446565b90508083600201546116219190614351565b83600201819055503373ffffffffffffffffffffffffffffffffffffffff167f0bda7f7cf42011b27b057b83f3bf21f963b84eb591478e6b413b18d7872cd37a858460405161167192919061409a565b60405180910390a2505050611684612521565b50565b6000611691610d92565b82106116d7576000826040517fa57d13dc0000000000000000000000000000000000000000000000000000000081526004016116ce929190614250565b60405180910390fd5b600982815481106116eb576116ea614477565b5b90600052602060002001549050919050565b6000611708826122d2565b9050919050565b600c5481565b600f5481565b60008073ffffffffffffffffffffffffffffffffffffffff168273ffffffffffffffffffffffffffffffffffffffff160361178e5760006040517f89c62b64000000000000000000000000000000000000000000000000000000008152600401611785919061382c565b60405180910390fd5b600460008373ffffffffffffffffffffffffffffffffffffffff1673ffffffffffffffffffffffffffffffffffffffff168152602001908152602001600020549050919050565b600281565b600d5481565b6000600c54905090565b60003373ffffffffffffffffffffffffffffffffffffffff1661180c856116fd565b73ffffffffffffffffffffffffffffffffffffffff1614611862576040517f08c379a000000000000000000000000000000000000000000000000000000000815260040161185990614518565b60405180910390fd5b600160146013600087815260200190815260200160002060405161188691906145db565b908152602001604051809103902060006101000a81548160ff0219169083151502179055506118b633308661252b565b600c60008154809291906118c9906145f2565b9190505550600d60008154809291906118e1906145f2565b91905055506000600c5490506000429050600084826119009190614351565b90506040518060e001604052803373ffffffffffffffffffffffffffffffffffffffff168152602001888152602001878152602001878152602001838152602001828152602001600160ff168152506010600085815260200190815260200160002060008201518160000160006101000a81548173ffffffffffffffffffffffffffffffffffffffff021916908373ffffffffffffffffffffffffffffffffffffffff1602179055506020820151816001015560408201518160020155606082015181600301556080820151816004015560a0820151816005015560c08201518160060160006101000a81548160ff021916908360ff1602179055509050503373ffffffffffffffffffffffffffffffffffffffff167e09646912aaa7019ad837e57cc5c0613299c8432f5268d4450ab8673fe0fa0384888a8686604051611a4c95949392919061463a565b60405180910390a28293505050509392505050565b606060028054611a7090613f6b565b80601f0160208091040260200160405190810160405280929190818152602001828054611a9c90613f6b565b8015611ae95780601f10611abe57610100808354040283529160200191611ae9565b820191906000526020600020905b815481529060010190602001808311611acc57829003601f168201915b5050505050905090565b60006011600084815260200190815260200160002060008373ffffffffffffffffffffffffffffffffffffffff1673ffffffffffffffffffffffffffffffffffffffff16815260200190815260200160002054905092915050565b611b60611b59612397565b83836127b5565b5050565b611b6f84848461117a565b611b7b84848484612924565b50505050565b600080611b8e3384611ecb565b9050600c6000815480929190611ba3906145f2565b9190505550600d6000815480929190611bbb906145f2565b91905055506000600c549050600042905060008682611bda9190614351565b90506040518060e001604052803373ffffffffffffffffffffffffffffffffffffffff168152602001858152602001898152602001898152602001838152602001828152602001600160ff168152506010600085815260200190815260200160002060008201518160000160006101000a81548173ffffffffffffffffffffffffffffffffffffffff021916908373ffffffffffffffffffffffffffffffffffffffff1602179055506020820151816001015560408201518160020155606082015181600301556080820151816004015560a0820151816005015560c08201518160060160006101000a81548160ff021916908360ff160217905550905050611ce433308661252b565b3373ffffffffffffffffffffffffffffffffffffffff167e09646912aaa7019ad837e57cc5c0613299c8432f5268d4450ab8673fe0fa03848a878686604051611d3195949392919061463a565b60405180910390a2829450505050509392505050565b6000806012600084815260200190815260200160002060009054906101000a900473ffffffffffffffffffffffffffffffffffffffff1690506011600084815260200190815260200160002060008273ffffffffffffffffffffffffffffffffffffffff1673ffffffffffffffffffffffffffffffffffffffff16815260200190815260200160002054915050919050565b60006012600083815260200190815260200160002060009054906101000a900473ffffffffffffffffffffffffffffffffffffffff169050919050565b6060601360008381526020019081526020016000208054611e3690613f6b565b80601f0160208091040260200160405190810160405280929190818152602001828054611e6290613f6b565b8015611eaf5780601f10611e8457610100808354040283529160200191611eaf565b820191906000526020600020905b815481529060010190602001808311611e9257829003601f168201915b50505050509050919050565b6000600d54905090565b600b5481565b6000601482604051611edd91906146be565b908152602001604051809103902060009054906101000a900460ff1615611f39576040517f08c379a0000000000000000000000000000000000000000000000000000000008152600401611f3090614721565b60405180910390fd5b600b6000815480929190611f4c906145f2565b91905055506000600b549050611f628482612adb565b82601360008381526020019081526020016000209081611f8291906148d8565b508373ffffffffffffffffffffffffffffffffffffffff167fe7cd4ce7f2a465edc730269a1305e8a48bad821e8fb7e152ec413829c01a53c482611fc4612af9565b604051611fd29291906149aa565b60405180910390a26001601484604051611fec91906146be565b908152602001604051809103902060006101000a81548160ff0219169083151502179055508091505092915050565b60106020528060005260406000206000915090508060000160009054906101000a900473ffffffffffffffffffffffffffffffffffffffff16908060010154908060020154908060030154908060040154908060050154908060060160009054906101000a900460ff16905087565b6000600660008473ffffffffffffffffffffffffffffffffffffffff1673ffffffffffffffffffffffffffffffffffffffff16815260200190815260200160002060008373ffffffffffffffffffffffffffffffffffffffff1673ffffffffffffffffffffffffffffffffffffffff16815260200190815260200160002060009054906101000a900460ff16905092915050565b6121266135b1565b601060008381526020019081526020016000206040518060e00160405290816000820160009054906101000a900473ffffffffffffffffffffffffffffffffffffffff1673ffffffffffffffffffffffffffffffffffffffff1673ffffffffffffffffffffffffffffffffffffffff16815260200160018201548152602001600282015481526020016003820154815260200160048201548152602001600582015481526020016006820160009054906101000a900460ff1660ff1660ff16815250509050919050565b60007f80ac58cd000000000000000000000000000000000000000000000000000000007bffffffffffffffffffffffffffffffffffffffffffffffffffffffff1916827bffffffffffffffffffffffffffffffffffffffffffffffffffffffff191614806122bb57507f5b5e139f000000000000000000000000000000000000000000000000000000007bffffffffffffffffffffffffffffffffffffffffffffffffffffffff1916827bffffffffffffffffffffffffffffffffffffffffffffffffffffffff1916145b806122cb57506122ca82612b8b565b5b9050919050565b6000806122de83612bf5565b9050600073ffffffffffffffffffffffffffffffffffffffff168173ffffffffffffffffffffffffffffffffffffffff160361235157826040517f7e27328900000000000000000000000000000000000000000000000000000000815260040161234891906138c2565b60405180910390fd5b80915050919050565b60006005600083815260200190815260200160002060009054906101000a900473ffffffffffffffffffffffffffffffffffffffff169050919050565b600033905090565b6123ac8383836001612c32565b505050565b6002600054036123ed576040517f3ee5aeb500000000000000000000000000000000000000000000000000000000815260040160405180910390fd5b6002600081905550565b600081031561251d57600073ffffffffffffffffffffffffffffffffffffffff168273ffffffffffffffffffffffffffffffffffffffff160361246f576040517f08c379a000000000000000000000000000000000000000000000000000000000815260040161246690614a4c565b60405180910390fd5b60008273ffffffffffffffffffffffffffffffffffffffff168260405161249590614a9d565b60006040518083038185875af1925050503d80600081146124d2576040519150601f19603f3d011682016040523d82523d6000602084013e6124d7565b606091505b505090508061251b576040517f08c379a000000000000000000000000000000000000000000000000000000000815260040161251290614afe565b60405180910390fd5b505b5050565b6001600081905550565b600073ffffffffffffffffffffffffffffffffffffffff168273ffffffffffffffffffffffffffffffffffffffff160361259d5760006040517f64a0ae92000000000000000000000000000000000000000000000000000000008152600401612594919061382c565b60405180910390fd5b60006125ab83836000612698565b9050600073ffffffffffffffffffffffffffffffffffffffff168173ffffffffffffffffffffffffffffffffffffffff160361261e57816040517f7e27328900000000000000000000000000000000000000000000000000000000815260040161261591906138c2565b60405180910390fd5b8373ffffffffffffffffffffffffffffffffffffffff168173ffffffffffffffffffffffffffffffffffffffff1614612692578382826040517f64283d7b00000000000000000000000000000000000000000000000000000000815260040161268993929190614219565b60405180910390fd5b50505050565b6000806126a6858585612df7565b9050600073ffffffffffffffffffffffffffffffffffffffff168173ffffffffffffffffffffffffffffffffffffffff16036126ea576126e584613011565b612729565b8473ffffffffffffffffffffffffffffffffffffffff168173ffffffffffffffffffffffffffffffffffffffff161461272857612727818561305a565b5b5b600073ffffffffffffffffffffffffffffffffffffffff168573ffffffffffffffffffffffffffffffffffffffff160361276b57612766846131bb565b6127aa565b8473ffffffffffffffffffffffffffffffffffffffff168173ffffffffffffffffffffffffffffffffffffffff16146127a9576127a8858561328c565b5b5b809150509392505050565b600073ffffffffffffffffffffffffffffffffffffffff168273ffffffffffffffffffffffffffffffffffffffff160361282657816040517f5b08ba1800000000000000000000000000000000000000000000000000000000815260040161281d919061382c565b60405180910390fd5b80600660008573ffffffffffffffffffffffffffffffffffffffff1673ffffffffffffffffffffffffffffffffffffffff16815260200190815260200160002060008473ffffffffffffffffffffffffffffffffffffffff1673ffffffffffffffffffffffffffffffffffffffff16815260200190815260200160002060006101000a81548160ff0219169083151502179055508173ffffffffffffffffffffffffffffffffffffffff168373ffffffffffffffffffffffffffffffffffffffff167f17307eab39ab6107e8899845ad3d59bd9653f200f220920489ca2b5937696c318360405161291791906136bb565b60405180910390a3505050565b60008373ffffffffffffffffffffffffffffffffffffffff163b1115612ad5578273ffffffffffffffffffffffffffffffffffffffff1663150b7a02612968612397565b8685856040518563ffffffff1660e01b815260040161298a9493929190614b73565b6020604051808303816000875af19250505080156129c657506040513d601f19601f820116820180604052508101906129c39190614bd4565b60015b612a4a573d80600081146129f6576040519150601f19603f3d011682016040523d82523d6000602084013e6129fb565b606091505b506000815103612a4257836040517f64a0ae92000000000000000000000000000000000000000000000000000000008152600401612a39919061382c565b60405180910390fd5b805181602001fd5b63150b7a0260e01b7bffffffffffffffffffffffffffffffffffffffffffffffffffffffff1916817bffffffffffffffffffffffffffffffffffffffffffffffffffffffff191614612ad357836040517f64a0ae92000000000000000000000000000000000000000000000000000000008152600401612aca919061382c565b60405180910390fd5b505b50505050565b612af5828260405180602001604052806000815250613317565b5050565b6060600e8054612b0890613f6b565b80601f0160208091040260200160405190810160405280929190818152602001828054612b3490613f6b565b8015612b815780601f10612b5657610100808354040283529160200191612b81565b820191906000526020600020905b815481529060010190602001808311612b6457829003601f168201915b5050505050905090565b60007f01ffc9a7000000000000000000000000000000000000000000000000000000007bffffffffffffffffffffffffffffffffffffffffffffffffffffffff1916827bffffffffffffffffffffffffffffffffffffffffffffffffffffffff1916149050919050565b60006003600083815260200190815260200160002060009054906101000a900473ffffffffffffffffffffffffffffffffffffffff169050919050565b8080612c6b5750600073ffffffffffffffffffffffffffffffffffffffff168273ffffffffffffffffffffffffffffffffffffffff1614155b15612d9f576000612c7b846122d2565b9050600073ffffffffffffffffffffffffffffffffffffffff168373ffffffffffffffffffffffffffffffffffffffff1614158015612ce657508273ffffffffffffffffffffffffffffffffffffffff168173ffffffffffffffffffffffffffffffffffffffff1614155b8015612cf95750612cf7818461208a565b155b15612d3b57826040517fa9fbf51f000000000000000000000000000000000000000000000000000000008152600401612d32919061382c565b60405180910390fd5b8115612d9d57838573ffffffffffffffffffffffffffffffffffffffff168273ffffffffffffffffffffffffffffffffffffffff167f8c5be1e5ebec7d5bd14f71427d1e84f3dd0314c0f7b2291e5b200ac8c7c3b92560405160405180910390a45b505b836005600085815260200190815260200160002060006101000a81548173ffffffffffffffffffffffffffffffffffffffff021916908373ffffffffffffffffffffffffffffffffffffffff16021790555050505050565b600080612e0384612bf5565b9050600073ffffffffffffffffffffffffffffffffffffffff168373ffffffffffffffffffffffffffffffffffffffff1614612e4557612e44818486613333565b5b600073ffffffffffffffffffffffffffffffffffffffff168173ffffffffffffffffffffffffffffffffffffffff1614612ed657612e87600085600080612c32565b6001600460008373ffffffffffffffffffffffffffffffffffffffff1673ffffffffffffffffffffffffffffffffffffffff168152602001908152602001600020600082825403925050819055505b600073ffffffffffffffffffffffffffffffffffffffff168573ffffffffffffffffffffffffffffffffffffffff1614612f59576001600460008773ffffffffffffffffffffffffffffffffffffffff1673ffffffffffffffffffffffffffffffffffffffff168152602001908152602001600020600082825401925050819055505b846003600086815260200190815260200160002060006101000a81548173ffffffffffffffffffffffffffffffffffffffff021916908373ffffffffffffffffffffffffffffffffffffffff160217905550838573ffffffffffffffffffffffffffffffffffffffff168273ffffffffffffffffffffffffffffffffffffffff167fddf252ad1be2c89b69c2b068fc378daa952ba7f163c4a11628f55a4df523b3ef60405160405180910390a4809150509392505050565b600980549050600a600083815260200190815260200160002081905550600981908060018154018082558091505060019003906000526020600020016000909190919091505550565b60006130658361171b565b905060006008600084815260200190815260200160002054905081811461314a576000600760008673ffffffffffffffffffffffffffffffffffffffff1673ffffffffffffffffffffffffffffffffffffffff168152602001908152602001600020600084815260200190815260200160002054905080600760008773ffffffffffffffffffffffffffffffffffffffff1673ffffffffffffffffffffffffffffffffffffffff168152602001908152602001600020600084815260200190815260200160002081905550816008600083815260200190815260200160002081905550505b6008600084815260200190815260200160002060009055600760008573ffffffffffffffffffffffffffffffffffffffff1673ffffffffffffffffffffffffffffffffffffffff16815260200190815260200160002060008381526020019081526020016000206000905550505050565b600060016009805490506131cf9190614c01565b90506000600a60008481526020019081526020016000205490506000600983815481106131ff576131fe614477565b5b90600052602060002001549050806009838154811061322157613220614477565b5b906000526020600020018190555081600a600083815260200190815260200160002081905550600a60008581526020019081526020016000206000905560098054806132705761326f614c35565b5b6001900381819060005260206000200160009055905550505050565b600060016132998461171b565b6132a39190614c01565b905081600760008573ffffffffffffffffffffffffffffffffffffffff1673ffffffffffffffffffffffffffffffffffffffff168152602001908152602001600020600083815260200190815260200160002081905550806008600084815260200190815260200160002081905550505050565b61332183836133f7565b61332e6000848484612924565b505050565b61333e8383836134f0565b6133f257600073ffffffffffffffffffffffffffffffffffffffff168373ffffffffffffffffffffffffffffffffffffffff16036133b357806040517f7e2732890000000000000000000000000000000000000000000000000000000081526004016133aa91906138c2565b60405180910390fd5b81816040517f177e802f0000000000000000000000000000000000000000000000000000000081526004016133e9929190614250565b60405180910390fd5b505050565b600073ffffffffffffffffffffffffffffffffffffffff168273ffffffffffffffffffffffffffffffffffffffff16036134695760006040517f64a0ae92000000000000000000000000000000000000000000000000000000008152600401613460919061382c565b60405180910390fd5b600061347783836000612698565b9050600073ffffffffffffffffffffffffffffffffffffffff168173ffffffffffffffffffffffffffffffffffffffff16146134eb5760006040517f73c6ac6e0000000000000000000000000000000000000000000000000000000081526004016134e2919061382c565b60405180910390fd5b505050565b60008073ffffffffffffffffffffffffffffffffffffffff168373ffffffffffffffffffffffffffffffffffffffff16141580156135a857508273ffffffffffffffffffffffffffffffffffffffff168473ffffffffffffffffffffffffffffffffffffffff1614806135695750613568848461208a565b5b806135a757508273ffffffffffffffffffffffffffffffffffffffff1661358f8361235a565b73ffffffffffffffffffffffffffffffffffffffff16145b5b90509392505050565b6040518060e00160405280600073ffffffffffffffffffffffffffffffffffffffff1681526020016000815260200160008152602001600081526020016000815260200160008152602001600060ff1681525090565b6000604051905090565b600080fd5b600080fd5b60007fffffffff0000000000000000000000000000000000000000000000000000000082169050919050565b6136508161361b565b811461365b57600080fd5b50565b60008135905061366d81613647565b92915050565b60006020828403121561368957613688613611565b5b60006136978482850161365e565b91505092915050565b60008115159050919050565b6136b5816136a0565b82525050565b60006020820190506136d060008301846136ac565b92915050565b600081519050919050565b600082825260208201905092915050565b60005b838110156137105780820151818401526020810190506136f5565b60008484015250505050565b6000601f19601f8301169050919050565b6000613738826136d6565b61374281856136e1565b93506137528185602086016136f2565b61375b8161371c565b840191505092915050565b60006020820190508181036000830152613780818461372d565b905092915050565b6000819050919050565b61379b81613788565b81146137a657600080fd5b50565b6000813590506137b881613792565b92915050565b6000602082840312156137d4576137d3613611565b5b60006137e2848285016137a9565b91505092915050565b600073ffffffffffffffffffffffffffffffffffffffff82169050919050565b6000613816826137eb565b9050919050565b6138268161380b565b82525050565b6000602082019050613841600083018461381d565b92915050565b6138508161380b565b811461385b57600080fd5b50565b60008135905061386d81613847565b92915050565b6000806040838503121561388a57613889613611565b5b60006138988582860161385e565b92505060206138a9858286016137a9565b9150509250929050565b6138bc81613788565b82525050565b60006020820190506138d760008301846138b3565b92915050565b6000806000606084860312156138f6576138f5613611565b5b60006139048682870161385e565b93505060206139158682870161385e565b9250506040613926868287016137a9565b9150509250925092565b600060ff82169050919050565b61394681613930565b82525050565b6000602082019050613961600083018461393d565b92915050565b6000806040838503121561397e5761397d613611565b5b600061398c858286016137a9565b925050602061399d8582860161385e565b9150509250929050565b6000602082840312156139bd576139bc613611565b5b60006139cb8482850161385e565b91505092915050565b6000806000606084860312156139ed576139ec613611565b5b60006139fb868287016137a9565b9350506020613a0c868287016137a9565b9250506040613a1d868287016137a9565b9150509250925092565b613a30816136a0565b8114613a3b57600080fd5b50565b600081359050613a4d81613a27565b92915050565b60008060408385031215613a6a57613a69613611565b5b6000613a788582860161385e565b9250506020613a8985828601613a3e565b9150509250929050565b600080fd5b600080fd5b7f4e487b7100000000000000000000000000000000000000000000000000000000600052604160045260246000fd5b613ad58261371c565b810181811067ffffffffffffffff82111715613af457613af3613a9d565b5b80604052505050565b6000613b07613607565b9050613b138282613acc565b919050565b600067ffffffffffffffff821115613b3357613b32613a9d565b5b613b3c8261371c565b9050602081019050919050565b82818337600083830152505050565b6000613b6b613b6684613b18565b613afd565b905082815260208101848484011115613b8757613b86613a98565b5b613b92848285613b49565b509392505050565b600082601f830112613baf57613bae613a93565b5b8135613bbf848260208601613b58565b91505092915050565b60008060008060808587031215613be257613be1613611565b5b6000613bf08782880161385e565b9450506020613c018782880161385e565b9350506040613c12878288016137a9565b925050606085013567ffffffffffffffff811115613c3357613c32613616565b5b613c3f87828801613b9a565b91505092959194509250565b600067ffffffffffffffff821115613c6657613c65613a9d565b5b613c6f8261371c565b9050602081019050919050565b6000613c8f613c8a84613c4b565b613afd565b905082815260208101848484011115613cab57613caa613a98565b5b613cb6848285613b49565b509392505050565b600082601f830112613cd357613cd2613a93565b5b8135613ce3848260208601613c7c565b91505092915050565b600080600060608486031215613d0557613d04613611565b5b6000613d13868287016137a9565b9350506020613d24868287016137a9565b925050604084013567ffffffffffffffff811115613d4557613d44613616565b5b613d5186828701613cbe565b9150509250925092565b60008060408385031215613d7257613d71613611565b5b6000613d808582860161385e565b925050602083013567ffffffffffffffff811115613da157613da0613616565b5b613dad85828601613cbe565b9150509250929050565b600060e082019050613dcc600083018a61381d565b613dd960208301896138b3565b613de660408301886138b3565b613df360608301876138b3565b613e0060808301866138b3565b613e0d60a08301856138b3565b613e1a60c083018461393d565b98975050505050505050565b60008060408385031215613e3d57613e3c613611565b5b6000613e4b8582860161385e565b9250506020613e5c8582860161385e565b9150509250929050565b613e6f8161380b565b82525050565b613e7e81613788565b82525050565b613e8d81613930565b82525050565b60e082016000820151613ea96000850182613e66565b506020820151613ebc6020850182613e75565b506040820151613ecf6040850182613e75565b506060820151613ee26060850182613e75565b506080820151613ef56080850182613e75565b5060a0820151613f0860a0850182613e75565b5060c0820151613f1b60c0850182613e84565b50505050565b600060e082019050613f366000830184613e93565b92915050565b7f4e487b7100000000000000000000000000000000000000000000000000000000600052602260045260246000fd5b60006002820490506001821680613f8357607f821691505b602082108103613f9657613f95613f3c565b5b50919050565b7f61756374696f6e206d75737420626520656e6465640000000000000000000000600082015250565b6000613fd26015836136e1565b9150613fdd82613f9c565b602082019050919050565b6000602082019050818103600083015261400181613fc5565b9050919050565b7f68696768657374206269646465722063616e6e6f74207769746864726177206260008201527f6964000000000000000000000000000000000000000000000000000000000000602082015250565b60006140646022836136e1565b915061406f82614008565b604082019050919050565b6000602082019050818103600083015261409381614057565b9050919050565b60006040820190506140af60008301856138b3565b6140bc60208301846138b3565b9392505050565b7f61756374696f6e206973206e6f74206578706c69726564000000000000000000600082015250565b60006140f96017836136e1565b9150614104826140c3565b602082019050919050565b60006020820190508181036000830152614128816140ec565b9050919050565b7f6f6e6c792073656c6c6572206f722077696e6e65722063616e20636f6d706c6560008201527f74652061756374696f6e00000000000000000000000000000000000000000000602082015250565b600061418b602a836136e1565b91506141968261412f565b604082019050919050565b600060208201905081810360008301526141ba8161417e565b9050919050565b7f4e487b7100000000000000000000000000000000000000000000000000000000600052601160045260246000fd5b60006141fb82613788565b91506000820361420e5761420d6141c1565b5b600182039050919050565b600060608201905061422e600083018661381d565b61423b60208301856138b3565b614248604083018461381d565b949350505050565b6000604082019050614265600083018561381d565b61427260208301846138b3565b9392505050565b7f61756374696f6e2068617320656e646564000000000000000000000000000000600082015250565b60006142af6011836136e1565b91506142ba82614279565b602082019050919050565b600060208201905081810360008301526142de816142a2565b9050919050565b7f63616e6e6f7420626964206f6e207768617420796f75206f776e000000000000600082015250565b600061431b601a836136e1565b9150614326826142e5565b602082019050919050565b6000602082019050818103600083015261434a8161430e565b9050919050565b600061435c82613788565b915061436783613788565b925082820190508082111561437f5761437e6141c1565b5b92915050565b7f63616e6e6f74206269642062656c6f7720746865206c6174657374206269646460008201527f696e672070726963650000000000000000000000000000000000000000000000602082015250565b60006143e16029836136e1565b91506143ec82614385565b604082019050919050565b60006020820190508181036000830152614410816143d4565b9050919050565b7f4e487b7100000000000000000000000000000000000000000000000000000000600052601260045260246000fd5b600061445182613788565b915061445c83613788565b92508261446c5761446b614417565b5b828204905092915050565b7f4e487b7100000000000000000000000000000000000000000000000000000000600052603260045260246000fd5b7f566f7573206e276574657320706173206c652070726f7072696574616972652060008201527f6465206365204e46540000000000000000000000000000000000000000000000602082015250565b60006145026029836136e1565b915061450d826144a6565b604082019050919050565b60006020820190508181036000830152614531816144f5565b9050919050565b600081905092915050565b60008190508160005260206000209050919050565b6000815461456581613f6b565b61456f8186614538565b9450600182166000811461458a576001811461459f576145d2565b60ff19831686528115158202860193506145d2565b6145a885614543565b60005b838110156145ca578154818901526001820191506020810190506145ab565b838801955050505b50505092915050565b60006145e78284614558565b915081905092915050565b60006145fd82613788565b91507fffffffffffffffffffffffffffffffffffffffffffffffffffffffffffffffff820361462f5761462e6141c1565b5b600182019050919050565b600060a08201905061464f60008301886138b3565b61465c60208301876138b3565b61466960408301866138b3565b61467660608301856138b3565b61468360808301846138b3565b9695505050505050565b6000614698826136d6565b6146a28185614538565b93506146b28185602086016136f2565b80840191505092915050565b60006146ca828461468d565b915081905092915050565b7f55524920616c7265616479207573656400000000000000000000000000000000600082015250565b600061470b6010836136e1565b9150614716826146d5565b602082019050919050565b6000602082019050818103600083015261473a816146fe565b9050919050565b60006020601f8301049050919050565b600082821b905092915050565b60006008830261478e7fffffffffffffffffffffffffffffffffffffffffffffffffffffffffffffffff82614751565b6147988683614751565b95508019841693508086168417925050509392505050565b6000819050919050565b60006147d56147d06147cb84613788565b6147b0565b613788565b9050919050565b6000819050919050565b6147ef836147ba565b6148036147fb826147dc565b84845461475e565b825550505050565b600090565b61481861480b565b6148238184846147e6565b505050565b5b818110156148475761483c600082614810565b600181019050614829565b5050565b601f82111561488c5761485d81614543565b61486684614741565b81016020851015614875578190505b61488961488185614741565b830182614828565b50505b505050565b600082821c905092915050565b60006148af60001984600802614891565b1980831691505092915050565b60006148c8838361489e565b9150826002028217905092915050565b6148e1826136d6565b67ffffffffffffffff8111156148fa576148f9613a9d565b5b6149048254613f6b565b61490f82828561484b565b600060209050601f8311600181146149425760008415614930578287015190505b61493a85826148bc565b8655506149a2565b601f19841661495086614543565b60005b8281101561497857848901518255600182019150602085019450602081019050614953565b868310156149955784890151614991601f89168261489e565b8355505b6001600288020188555050505b505050505050565b60006040820190506149bf60008301856138b3565b81810360208301526149d1818461372d565b90509392505050565b7f4572726f722c2063616e6e6f74207472616e7366657220746f2061646472657360008201527f7328302900000000000000000000000000000000000000000000000000000000602082015250565b6000614a366024836136e1565b9150614a41826149da565b604082019050919050565b60006020820190508181036000830152614a6581614a29565b9050919050565b600081905092915050565b50565b6000614a87600083614a6c565b9150614a9282614a77565b600082019050919050565b6000614aa882614a7a565b9150819050919050565b7f4572726f722c206661696c656420746f2073656e642045746865720000000000600082015250565b6000614ae8601b836136e1565b9150614af382614ab2565b602082019050919050565b60006020820190508181036000830152614b1781614adb565b9050919050565b600081519050919050565b600082825260208201905092915050565b6000614b4582614b1e565b614b4f8185614b29565b9350614b5f8185602086016136f2565b614b688161371c565b840191505092915050565b6000608082019050614b88600083018761381d565b614b95602083018661381d565b614ba260408301856138b3565b8181036060830152614bb48184614b3a565b905095945050505050565b600081519050614bce81613647565b92915050565b600060208284031215614bea57614be9613611565b5b6000614bf884828501614bbf565b91505092915050565b6000614c0c82613788565b9150614c1783613788565b9250828203905081811115614c2f57614c2e6141c1565b5b92915050565b7f4e487b7100000000000000000000000000000000000000000000000000000000600052603160045260246000fdfea26469706673582212204c9a4a588228c1b4393df889f7b6fccab3734da2fb2179dcc8c5c618b7c2fa0864736f6c63430008140033",
  "linkReferences": {},
  "deployedLinkReferences": {}
}